S0230000776973756E5F6E6F64655F6D6F6E69746F72696E675F4D6F64756C652E7333372C
S3150800600000100020A5C90008D76D0508D76D05083A
S31508006010D76D0508D76D0508D76D0508D76D05082E
S31508006020D76D0508D76D0508D76D0508D76D05081E
S31508006030D76D0508003D070837130108D76D050811
S31508006040D76D0508D76D0508D76D0508D76D0508FE
S31508006050D76D0508D76D0508D76D0508D76D0508EE
S31508006060D76D0508D76D0508D76D0508D76D0508DE
S31508006070D76D0508159A00086B5E0508D76D0508E3
S31508006080D76D0508D76D0508D76D0508D76D0508BE
S31508006090D76D0508D76D0508D76D0508D76D0508AE
S315080060A0D76D0508D76D0508D76D0508D76D05089E
S315080060B0FDD40008D76D0508D76D0508D76D050806
S315080060C0D76D0508D76D0508D76D0508D76D05087E
S315080060D0A1870208219302082F0006082B0006084C
S315080060E0718A02083B00060833000608F592020882
S315080060F0370006088593020889940208D76D0508B3
S31508006100D76D0508D76D0508D76D0508D76D05083D
S31508006110D76D0508D76D0508D76D0508D76D05082D
S31508006120D76D0508D76D0508D76D0508D76D05081D
S31508006130D76D0508D76D0508D76D0508D76D05080D
S31508006140D76D0508D76D0508D76D0508D76D0508FD
S31508006150D76D0508D76D0508D76D0508D76D0508ED
S31508006160D76D0508D76D0508B1180108D76D05085C
S31508006170D76D05084D9C0508F1690208CBFF05088F
S31508006180D1FF0508D76D0508D76D0508D76D050831
S31508006190D76D0508D76D0508D76D0508D76D0508AD
S30D080061A03F000608D76D05084B
S315080061A8F0B5114A114C124E00F00105E3695F0774
S315080061B813D40DB9334213D103EA00078F4207D126
S315080061C80B4A1A40002A0CBF00206FF00100F0BDE8
S315080061D8013AEBD16FF00200F9E74FF0FF30F6E726
S315080061E86FF00100F3E700BF80969800000003509F
S315080061F80200010070B50B4BD96911F480310DD135
S3150800620801244FF48072084E084DF46020462C6429
S315080062181A61FFF7C5FF3464EC6070BD6FF00100C2
S31508006228FBE700BF0000035000100350002003508E
S3150800623838B54FF480320E4B0E4C9A66E56941F62E
S31508006248713315400122E3630B4B0021DA60022300
S31508006258606121202361FFF7A3FF10B92120FFF70A
S315080062689FFF0122054BDA600DB10023E36338BDB1
S3150800627800900050000003500010035000200350FF
S3150800628870B5134C6061E3695B071ED40E4656F871
S31508006298043B8D18A361AE420BD1042300212120AB
S315080062A82361FFF77DFF58B9BDE870402120FFF745
S315080062B877BF08210846FFF773FF10B10423236147
S315080062C870BD56F8043BA361E5E74FF0FF30F7E7E2
S315080062D8000003502DE9F84315464FF48032184B51
S315080062E889469A6603F51C33DF690646174041F660
S315080062F87132DA63012203F58053DFF84C80DA60DD
S3150800630855B9284601220F4BDA601FB10022A3F5BA
S315080063180053DA63BDE8F88306F5005404EA08046E
S31508006328A41BAC4228BF2C46494622463046FFF7EE
S31508006338A7FF0028E6D12644A1442D1BE0E700BFA5
S31108006348009000500020035000E0FFFF0A
S31508006400013800D0FCE770472DE9F0410023154616
S31508006410C2E900014FF47A7280460F464EF0B8F88A
S3150800642018A3D3E9002304460E46404639464EF0E3
S31508006430AFF8134B80B228815843241A66F1000638
S315080064404FF461620023204631464EF0A1F84FF41E
S315080064506163C0B2A8725843241A20464FF03C0222
S315080064604FF0000366F100014EF092F8C0B2E872F0
S31508006470C0EB0010A4EB80042C73BDE8F08100BFCC
S3150800648080510100005C26050000000000000000A5
S315080064902DE9F04F93B0CDE90A32DDE91C530E938E
S315080064A053EC102BCDE90801104619468DED060B65
S315080064B01E9E4DF045FE80B1DDE906014FF0FF3224
S315080064C0C54B4DF065FE40B9DDE906014FF0FF32D8
S315080064D06FF480134DF03EFE70B1DDE908019DEDC5
S315080064E0060B0E9B1E96CDE91C53DDE90A3213B046
S315080064F0BDE8F04F00F088B90022DDE90601002367
S315080065004DF028FE002800F03381DDE906A303F1EB
S31508006510004BCBF30A5016F48063A0F2FF3008BF95
S3150800652006250F934DF03AFB9BA3D3E900234DF0C4
S315080065309FFB9BA3D3E900234DF0E4F9CBF31304A7
S31508006540894644F07F5180460022A44B504641F4C8
S3150800655040114DF0D5F994A3D3E900234DF088FBFB
S3150800656002460B46404649464DF0CCF94DF01AFE18
S3150800657004464DF013FB8EA3D3E9002380468946D3
S315080065804DF076FB0022964B4DF0BCF94DF00AFE15
S3150800659089A3D3E900230746494640464DF068FBE0
S315080065A08046384689464DF0F9FA85A3D3E9002393
S315080065B04DF05EFB02460B46404649464DF0A0F9B3
S315080065C002460B46CDE90C234DF052FBDDE90C23C0
S315080065D080468946104619464DF094F90022CDE9C1
S315080065E01001804B404649464DF06CFC00227E4B1C
S315080065F04DF088F902460B46404649464DF062FC86
S3150800660000227A4B4DF07EF902460B464046494633
S315080066104DF058FCDDE90C238046894600204FF0F2
S3150800662080414DF06DF902460B46404649464DF00D
S3150800663069F902460B46DDE910014DF043FC07F205
S31508006640FF3700226A4B4DF05DF900223B054DF0FD
S315080066500FFB52465B46804689464DF099FD002859
S3150800666040F08980CDE90C8904F16303C72B34BF58
S315080066700427052731051BD553A3D3E90023504624
S3150800668059464DF07BFD00287FD051A3D3E900235E
S31508006690504659464DF05EFD002876D00027A542A3
S315080066A0C6BF2C1B04F1FF3500253C4646F4806620
S315080066B00E9B9F422CBF4FF00008A3EB070816F06D
S315080066C0020903D0002F18BF4FF000083CB1DDE9DE
S315080066D00C23504659464DF0F5FB82468B46DDE9BC
S315080066E00601002200234DF035FD10B10BF10043E1
S315080066F09B46DDE9080126F40063CDE90183DDE95F
S315080067000A324BEC10AB009500F07EF802465FB3F8
S31508006710DDE9091316F0200F00F10105089E0CBFEC
S3150800672065204520B047DDE90801052300220593C9
S315080067300A23002CCDE9023207F1FF374FEAD4735A
S31508006740B8BF64422A46019304970A9B009458F0FE
S315080067503BFA0246B9F1000F06D00B9BC41A0B9BF5
S315080067601A190E9BA34245D8104613B0BDE8F08F00
S31508006770DDE906ABCDE60022404649461A4B4DF008
S31508006780A1FB013CCDE90C016EE7002D90D00F9BD3
S31508006790002B8DD0013D8BE7FB799F501344D33FE7
S315080067A0B3C8608B288AC63F61436F63A787D23F09
S315080067B071A379094F930A401655B5BBB16B0240D0
S315080067C0EF39FAFE422EE63F2D431CEBE2361A3F1E
S315080067D00000000080842E41FFFFEF7F0000F83F95
S315080067E00000E03F00002C40000024400000184054
S315080067F00000F03F2020DDE90913089DA847013471
S31508006800ADE700BF000000002DE9F04F97B05BEC44
S3150800681010ABDDE92057CDE90501CDE90723504640
S3150800682052465B465946229E4DF08AFC70B90323B0
S31508006830CDE902760193B04B0093DDE90501DDE968
S31508006840072358F0E1F817B0BDE8F08F4FF0FF3294
S315080068506FF48013504659464DF07CFC28B104234A
S31508006860CDE902760193A54BE6E74FF0FF32504695
S315080068705946A34B4DF08CFC68B1A24A06F00403B6
S31508006880002B08BF0322A04B1CBF13460422CDE9E8
S3150800689002760192D0E7504693A3D3E900235946DE
S315080068A04DF076FC38B992A3D3E9002350465946F1
S315080068B04DF050FC68B1DDE90723DDE905014BEC35
S315080068C010ABCDE92176209517B0BDE8F04FFFF75C
S315080068D0DFBD00220023504659464DF03BFC0028F8
S315080068E000F09A805B465246002000214DF008F8D9
S315080068F0012382468B46099316F4806400F08E8045
S31508006900092D40F28E80002430210EABA5F1090234
S315080069100134202C03F8011BA5EB040901D094428D
S31508006920F6D1594650464DF03DFC784B054603EBEB
S31508006930C90393ED007B8DED0A7B4DF02FF90246D6
S315080069400B46504659464CF0DBFFDDE90A234DF06D
S315080069508FF902460B46CDE90C234DF04BFC8046D9
S315080069604DF00CF902460B46DDE90C014CF0C8FF68
S3150800697002460B46CDE90C230022654B4DF008FC78
S31508006980002851D008F1010840464DF0F7F80246B4
S315080069900B46DDE90A014DF0E7FB10B14FF00008A0
S315080069A00135B9F1000F50D128464DF0F7F80246E7
S315080069B00B46504659464CF0A3FF0022544B8046DE
S315080069C089464DF0C7FB30B1002240464946504B38
S315080069D04DF0DEFB10B1E80700D501350A210EABF4
S315080069E01A19202C0AD095FBF1F001FB1055303509
S315080069F002F8015B013405460028F2D106F00302CD
S31508006A00012A57D1002F55D0099A12B916F00C0F42
S31508006A1000D0013F302245E009906DE74FF00609A6
S31508006A207FE7A94600247CE70022DDE90C01384B04
S31508006A304DF090FB0028B4D1B8F1000F02D018F041
S31508006A40010FAED008F10108ABE70A210EAB2344CB
S31508006A50202C0ED0B8FBF1F001FB1082B8F1090F1B
S31508006A6002F1300209F1FF3904F1010403F8012BA0
S31508006A7011D83021A1440EAA202CAFD0A14504F18B
S31508006A8001030AD11C4609F158030DEB03092E230D
S31508006A9009F8203CA2E78046DAE7A1541C46EBE752
S31508006AA01A550134A74205D9202CF9D1CDE9027629
S31508006AB00194C1E6202CF9D0099A3AB12D2104F1A6
S31508006AC058026A4402F8201C0134EFE7710704D51E
S31508006AD004F158022B216A44F4E73207E6D504F19B
S31508006AE0580220216A44EDE70000000065CDCD413B
S31508006AF00000000065CDCDC16B6007086F60070810
S31508006B00FFFFEF7F6260070867600708786007087D
S31508006B100000E03F0000000070B5A8B02C2200215C
S31508006B201DA868F08EFD4FF002331F9340F20B1339
S31508006B307B4D14ACADF89C300FCD0FC40FCD0FC4F0
S31508006B402B6878492360784B784807930023CDE96A
S31508006B5008330A9322F0B6FD754D286000284FD0F9
S31508006B60012159F079FA20B140F22641714823F003
S31508006B7093FD286858F01DFF6F4E3070286858F04E
S31508006B801AFF6E4B6E491870286822F08FFE04466D
S31508006B9000282FD133786B4E5BB96B4826F07EFF01
S31508006BA03060E0B940F25741684B694A61484DF098
S31508006BB07FFE684826F072FF30600028EDD0C18954
S31508006BC028681AF05DFA33682146586826F004FFEB
S31508006BD0044678B95C4826F061FF306090B1C189F7
S31508006BE028681AF04DFA33680421586826F0F4FE2E
S31508006BF0044638B1234622210220574A59F03DFC63
S31508006C0028B070BD08F0EEF9544A04ABCDE904018A
S31508006C100393A2F1080113F8010B02F8010D914242
S31508006C20F9D10622FF210BA868F00BFD0622FF21E9
S31508006C300DF1320068F005FD182200210EA868F053
S31508006C4000FD08220EA903A868F006FD41F23423C8
S31508006C501C22002120A8ADF82C3068F0F2FC286828
S31508006C601DA922F0F9FF04460028C3D13C4928682B
S31508006C7058F044FE04460028BCD13A49286858F022
S31508006C8027FE04460028B5D1374928681AF076F851
S31508006C9004460028AED120A3D3E90023CDE900237A
S31508006CA0286858F02DFE04460028A3D12F4A3049FB
S31508006CB0286859F05EFA044600289BD1012022F084
S31508006CC04DFD00289CD0A0232A4A07A8D3802A4A2B
S31508006CD0136008F08DFA294B186020B94FF49461B7
S31508006CE0274B1B4A62E7274A2749284828F0E6FA2D
S31508006CF0264844F0C3FC2146254814AA08F02CFB74
S31508006D00244B186000287FF47BAF40F2AC41224B3D
S31508006D100F4A4BE7AFF30080488D01C103400000DE
S31508006D20EC110908C1D802080008090884C2002025
S31508006D30F05D0020B6020908B8B30020B7B30020FA
S31508006D4007001100A84D0020A31406081508090815
S31508006D50C81009088D14060863080908C1B300207D
S31508006D60EA110908E8110908F45D00207CC400202E
S31508006D70E84D0020A4C200205C5E0020685E00206A
S31508006D802D0809084908090869DC0208105E002070
S31508006D9045EA0208705E0020520809080000000053
S31508006DA02DE9F7430546564C22211020554A59F03D
S31508006DB064FB18222946204668F04EFCA27B524BFB
S31508006DC0DFF890911A70E37C002289F800300023DE
S31508006DD04E4FCDE90023386800224FF4007358F06F
S31508006DE08FFD18B1012003B0BDE8F083484B494E2A
S31508006DF01B787BB9484826F051FE04463460F4B93E
S31508006E000220464A222159F038FB0122444B212010
S31508006E101A70E8E7434B444C1A88444B386853F8D1
S31508006E202210434A8B68216033601AF013F92268EE
S31508006E30404B946824221B8802FB0344DEE73E4B42
S31508006E401C60394BD3F80080B8F1000F07D0002337
S31508006E502420D8F80C108B4208D100251AE040F2FD
S31508006E600171364B364A37484DF022FDD8F808509E
S31508006E7000FB0355EA695278120912F00E0F2ED05C
S31508006E80052A2CD8304B0021EA8993F90000356091
S31508006E9026F0DAFD18A3D3E90023CDE900233868E4
S31508006EA058F02EFDD8F80820AA4207D0274B3260A2
S31508006EB00421D28993F9000026F0C6FD244BE28905
S31508006EC034601A8099F800301B0913F00E0F08D0A9
S31508006ED027F0B2FB012027F07FF8002083E7013373
S31508006EE0B9E701220721386859F0F6F90028EFD0EA
S31508006EF078E700BFAFF30080488D01C10342000068
S31508006F00AC4D0020E70A0908AFB30020F05D002069
S31508006F10B3B30020A84D00203DDB0208030B090887
S31508006F20B0B30020106500209C4D002024BE002030
S31508006F30ADDB02080E650020A44D00203F0B0908B2
S31508006F40760F0908B60209088BC600208CC60020F1
S31508006F5076C40020AEB300200348044B834202D017
S31508006F60034B03B1184770477CD000207CD0002023
S31508006F7000000000064B0749C91A891048BF0131AD
S31508006F80491003D0044B0BB101481847704700BF9E
S31508006F907CD000207CD000200000000010B5064CF4
S31508006FA0237843B9FFF7D8FF044B13B10448AFF36E
S31508006FB000800123237010BD20650020000000001A
S31508006FC074BD090808B5054B1BB105490548AFF35B
S31508006FD00080BDE80840FFF7CDBF00BF00000000F5
S31508006FE0502E002074BD0908A3F5803A704700BFEB
S31508006FF0174B002B08BF134B9D46FFF7F5FF0021E3
S315080070008B460F461348144A121A68F01AFB0E4BA1
S31508007010002B00D098470D4B002B00D09847002036
S31508007020002104000D000D48002802D00C48AFF3DB
S3150800703000804EF0D1F8200029004EF0B1FE4DF048
S3150800704055FC00BF0000080000000000000000001A
S31508007050001000200010002008BC002000000000DE
S315080070600000000008B502F0C9FA0022084BC3E97F
S315080070700001084BC3E90001074B08491A800022A2
S315080070800023C1E900230649C1E9002308BD00BF62
S315080070907810002070100020A464002068100020DA
S315080070A0601000202DE9F0439BB000AF0023044692
S315080070B0F81CC7E9013359F0A8FB18B181B2184882
S315080070C017F04CFE6A46FB78F81CA2EBC3039D46F4
S315080070D06946E84659F0AEFB18B181B2114817F077
S315080070E03DFE0026FB78F5B2AB4210D908EBC50980
S315080070F0484607F10C0159F0B6FBFB6A0136002B2E
S31508007100F0D158F83500D9F804103B1D03C33B1DD0
S3150800711003CB206020466C376160BD46BDE8F0832E
S31508007120A8FC0608E1FC060813B56846FFF7BAFF8F
S31508007130064C009B06492360019B06486360E37979
S31508007140A27902B0BDE8104017F01CBED16D002030
S3150800715015FD06089276002030B597B010A859F0AC
S31508007160CAFB4EF016FE11AD02461749284617F01F
S3150800717009FEFFF7D9FF154BBDF84020D3E90A01F0
S31508007180CDE90E01D3E90801CDE90C01D3E90601E1
S31508007190CDE90A01D3E90401CDE90801D3E90201E1
S315080071A00B4B0C4C01930C4BCDE90601CDE90322A0
S315080071B000934FF480612046084B094A029517F060
S315080071C0F5FD204617B030BD971B090800100020B2
S315080071D092760020E1710020B9FD06089A76002013
S315080071E02CFD06082DE9F04FA9B080464EF0D1FDDA
S315080071F0654C0FAF02466549384617F0C3FDFFF7E1
S3150800720093FF2378052B65D102F0F8F9604ADFF879
S31508007210B0B1D2E90045041B61EB050529462046B5
S3150800722002F0C6F95949024619A817F0ABFDDBE981
S315080072300001201845EB010102F0BAF9554E0DF18F
S31508007240780902465149484617F09CFDD6E90001DF
S3150800725002F0AEF90DF18C0A02464C49504617F079
S3150800726091FDDBE90032E41845EB02052046294684
S31508007270CDE90A9A4CF0C6FC0022474B4CF0F8FCC4
S3150800728082468B46D6E90001201845EB01014CF0F1
S31508007290B9FC0B460246594650464CF013FECDE95A
S315080072A008013E4B1B8806933D4B059319ABCDE968
S315080072B003733C4B4FF4806102933B4B3B4A01936B
S315080072C03B4B3C480093434617F070FD394829B0BC
S315080072D0BDE8F08F02F092F9374ADFF8E490D2E978
S315080072E00056451B61EB06062278344914A817F0A8
S315080072F049FD3146284602F05BF92449024619A899
S3150800730017F040FDD9E9000102F052F9DFF884A030
S315080073100DF1780B02461D49584617F033FDDAE998
S315080073200001281846EB010102F042F923AB024698
S315080073301649184617F026FDD9E9004923AB204619
S315080073404946CDE90AB34CF05DFC0022124B4CF0DD
S315080073508FFCCDE90C01DAE90031E41849EB0101AB
S31508007360601946EB01014CF04DFC0B460246DDE97F
S315080073700C014CF0A7FDCDE90801084B1B880693C4
S3150800738019AB059314AB92E7E1750020971B090822
S31508007390781000206010002000005940A4640020E6
S315080073A093FE060892760020B9FD0608BEFD06087B
S315080073B09A760020E17100207010002096FE0608DB
S315080073C06810002037B56049012059F039F905469B
S315080073D05E495D4805F04EF95D4C002D00F09C8035
S315080073E04FF480615B4A206817F0E0FC4EF0D1FC50
S315080073F0236802465849002057F008FD4EF0C9FC9C
S3150800740022680146544817F0A9FC4FF48061534A94
S31508007410ABB2206817F0CAFC0020216857F0F6FCCA
S31508007420206817F09BFC4FF480614D4B4D4A20684D
S3150800743017F0BCFC4EF0ADFC236802464649002016
S3150800744057F0E4FC4EF0A5FC22680146424817F0C6
S3150800745085FC434868F00DF9434A014640484FF019
S31508007460C4FB4249404805F005F940F2D54300936C
S315080074704FF480613D4B3E4A206817F097FC4EF06A
S3150800748088FC236802463449002057F0BFFC4EF0BA
S3150800749080FC22680146304817F060FC4FF4806192
S315080074A0344B354A206817F081FC4EF072FC23688D
S315080074B002462949002057F0A9FC4EF06AFC2268CA
S315080074C00146254817F04AFC2A4868F0D2F82B4AA4
S315080074D0014628484FF089FB2949284805F0CAF88B
S315080074E041F2356300934FF48061254B254A2068A5
S315080074F017F05CFC4EF04DFC236802461649002046
S3150800750057F084FC4EF045FC22680146124817F0F5
S3150800751025FC284603B030BD4FF480610B4B1A4A50
S31508007520206817F043FC4EF034FC236802460A49EB
S31508007530284657F06BFC4EF02CFC2268014606489C
S3150800754017F00CFC6FE700BFC16D0020996D002095
S315080075501C2F0020F0570708AAFE0608B2FE0608E8
S3150800756012FF060824FF06089C2E0020496D0020FD
S315080075703FFF060866FF060878FF06087C2E0020EF
S31508007580216D002094FF0608EFFE0608F8B5FFF700
S3150800759019FF03220221002058F091FF514A411C8D
S315080075A00346514C106023D14FF480614F4A20683E
S315080075B017F0FCFB4EF0EDFB236802464C49002011
S315080075C057F024FC4EF0E5FB22680146484817F0C0
S315080075D0C5FB484A4FF48061206817F0E7FB21682D
S315080075E0002057F013FC206817F0B8FB0120F8BDFF
S315080075F04FF48061404A206817F0D8FB4EF0C9FB6B
S31508007600236802463A49002057F000FC4EF0C1FBB9
S31508007610002501462268394E354817F09FFB40F28F
S31508007620D540356058F036FF0322B080022128463F
S3150800763058F045FF324E421C0346306016D14FF4CF
S3150800764080612A4A206817F0B1FB4EF0A2FB236836
S3150800765002462749284657F0D9FB4EF09AFB22687E
S315080076600146234817F07AFB264AB3E74FF48061B0
S31508007670254A206817F09AFB4EF08BFB23680246D2
S315080076801B49284657F0C2FB4EF083FB1F4F0146A5
S31508007690226817481E4C17F061FB41F235602560D9
S315080076A058F0F8FE33683E46A08046F8043B0FCCF7
S315080076B00FC694E80F0086E80F0041F20303FB8427
S315080076C03223BB6242F22A3312484FF48C71BB85CF
S315080076D0B8634FF09FFC7D63F88587F824502846E9
S315080076E03D6484E76C2E00201C2F0020F057070805
S315080076F0AAFE0608BBFF0608F1FF0608902E002022
S31508007700682E00202100070858000708C0BD002081
S31508007710702E00208800070873B53C4D4FF48C7115
S31508007720E8634FF077FC288605F124004FF070F8DF
S3150800773006464FF056F80446E8B9354D009640F22D
S315080077402A334FF48061334A286817F02FFB4EF02E
S3150800775020FB2B6802463049204657F057FB4EF06F
S3150800776018FB2A6801462C4817F0F8FA4FF44B75AF
S31508007770284602B070BD05F124014FF04BF80028E9
S315080077801CDA234D40F22F334FF48061234A2868D0
S3150800779017F00CFB4EF0FDFA1F4902462B68002035
S315080077A057F034FB4EF0F5FA2A6801461A4817F0E6
S315080077B0D5FA002520464FF020F8D9E72023019373
S315080077C0174B3246009321460023286822F086FE8E
S315080077D00130EED12B680E4E00934FF480614FF4C2
S315080077E04E73104A306817F0E1FA4EF0D2FA336851
S315080077F002460949002057F009FB4EF0CAFA3268DA
S315080078000146054817F0AAFA3125D3E7C0BD00207E
S315080078101C2F00209B000708AAFE0608DB000708A5
S31508007820702E0020150107082DE9F04385B005469E
S315080078301C469DF830609DF83470002A00F08F8051
S31508007840002978D04EF0A5FA0146714817F086FA55
S31508007850284617F083FA002C40F09A800124002E5F
S315080078603CD02B464FF480616A4A6B4817F09EFA63
S3150800787020230193694BDFF8D091009386B2002349
S3150800788032466549D9F8000022F028FE013040F05A
S31508007890838040F2D5430293614B03960193D9F84E
S315080078A00030DFF88C8100934FF4806140F25F333B
S315080078B05C4AD8F8000017F079FA4EF06AFA5A4985
S315080078C00246D8F80030002057F0A0FA4EF061FAC8
S315080078D0D8F800200146544817F040FA3FB32B4623
S315080078E04FF480614B4A514817F060FA83B2B3F5FA
S315080078F08C7F54D94FF48C734D4D80B20193009010
S315080079004FF45A734FF480614A4A286817F04EFAC2
S315080079104EF03FFA444902462B68002057F076FAA3
S315080079204EF037FA2A6801463F4817F017FA2046FC
S3150800793005B0BDE8F08317F011FA002C8ED00124AB
S31508007940DFF8EC802A464FF48061D8F8000017F07B
S315080079502DFAD8F80010002057F058FA16E0002B38
S315080079603FF47DAFB1B11446DFF8C4802A464FF420
S315080079708061D8F8000017F019FA4EF00AFAD8F81C
S31508007980003002462849002057F040FA013466E7DD
S315080079900124E9E70C46D3E70134E4B29EE723481D
S315080079A0FFF7BAFE064610B90134E4B2BFE7204D28
S315080079B04FF48061204A286817F0F8F94EF0E9F983
S315080079C02B6802461849002057F020FA4EF0E1F9D4
S315080079D02A680146144817F0C1F941F23563029343
S315080079E0164BB6B20193164B03961B68154A0093BD
S315080079F04FF480614FF45B73286817F0D7F929684C
S31508007A00002057F003FA286817F0A8F98FE700BF97
S31508007A1043010708971B090821690020902E0020BA
S31508007A20496D002049010708AAFE060821650020BD
S31508007A301C2F0020A7010708F0570708216D002012
S31508007A40682E0020130207086C2E00202DE9F0434B
S31508007A5087B001F035FDC54DC54817F07FF9C54E0D
S31508007A60C54AC649C648C74C17F08CF9642128464A
S31508007A70C54BC24A17F09AF9019500964FF48061F2
S31508007A80BF4BC24A206817F091F94EF082F9236875
S31508007A900246BF49002057F0B9F94EF07AF9226834
S31508007AA00146BB4817F05AF9BA4B3221BA4A009335
S31508007AB0BA48BB4B17F07AF94FF48061B04BB94A14
S31508007AC0206817F073F94EF064F923680246B04946
S31508007AD0002057F09BF94EF05CF922680146AC4845
S31508007AE017F03CF933464FF48061AE4A206817F028
S31508007AF05DF94EF04EF923680246A549002057F075
S31508007B0085F94EF046F922680146A14817F026F98C
S31508007B102B464FF48061A34A206817F047F94EF0C8
S31508007B2038F9236802469A49002057F06FF94EF053
S31508007B3030F922680146964817F010F94FF480612B
S31508007B40964B984A206817F031F94EF022F92368C7
S31508007B5002468F49002057F059F94EF01AF9226863
S31508007B6001468B4817F0FAF80121042001F062FA61
S31508007B7001222220114601F085FA01220B20114626
S31508007B8001F080FA01222520114601F07BFA012234
S31508007B901D20114601F076FA834B4FF48061774A2F
S31508007BA0824817F003F94FF48061814A206817F07C
S31508007BB0FDF84EF0EEF8236802467549002057F0A6
S31508007BC025F94EF0E6F822680146714817F0C6F81E
S31508007BD04FF48061774A206817F0E8F84EF0D9F834
S31508007BE0236802466A49002057F010F94EF0D1F88A
S31508007BF022680146664817F0B1F84FF480616E4B6B
S31508007C006E4A206817F0D2F84EF0C3F82368024689
S31508007C105F49002057F0FAF84EF0BBF82268014693
S31508007C205B4817F09BF84FF48061634B644A206801
S31508007C3017F0BCF84EF0ADF8236802465449002008
S31508007C4057F0E4F84EF0A5F85E4D01462268504814
S31508007C5017F084F8284658F0C0FDEB79AA795A49F6
S31508007C605A4817F08FF84FF48061584B584A2068E5
S31508007C7017F09CF84EF08DF8236802464449002018
S31508007C8057F0C4F84EF085F822680146404817F0C8
S31508007C9065F85049504817F075F84FF480614E4B17
S31508007CA04E4A206817F082F84EF073F823680246A9
S31508007CB03749002057F0AAF84EF06BF822680146BB
S31508007CC0334817F04BF846498B2003F0F1FB01F0D7
S31508007CD095FC444B444FC3E9000158F06DFD4FF441
S31508007CE08061424A206817F061F84EF052F823681E
S31508007CF002462749002057F089F84EF04AF82268CC
S31508007D000146234817F02AF84EF0B7F80121042057
S31508007D1001F090F901222220114601F0B3F901225F
S31508007D200B20114601F0AEF901222520114601F07B
S31508007D30A9F901221D20114601F0A4F9FFF726FC36
S31508007D4001F002FA01F084FC4523294A29492A4808
S31508007D5017F004F802A9012058F072FC274816F01B
S31508007D60FDFF02A804F0F8FC012449E02E76002065
S31508007D70F0570708A5020708B9FD0608971B090862
S31508007D80A27600201C2F00207D0207089B02070808
S31508007D90AAFE0608CF020708BA020708FC750020E3
S31508007DA0AE0207080EFF0608B8530708E16D002063
S31508007DB0D8020708EF020708090307081903070886
S31508007DC031030708D96D002015FD06089A760020AC
S31508007DD04903070858030708E375002070030708D6
S31508007DE00D7F000880100020E17500208003070839
S31508007DF09A030708A6030708B9030708FB03070839
S31508007E000146344816F0BEFF41F23362324B31491F
S31508007E10324816F0A3FF324816F0A0FF41F233624B
S31508007E202D4B2C492F4816F099FF0A212E4816F09B
S31508007E3095FF41F235622D4B2D492E4816F08EFFDF
S31508007E402D4816F08BFF41F23562284B28492B48FE
S31508007E5016F084FF2A491F4800F0E0FA2948FFF780
S31508007E607BF9234622462146CDE90044FFF7DCFC90
S31508007E70DFF894803B78052B29D101F0A7FA4FF05B
S31508007E80010901F0B7FC01F0B9FB0023B8F800209E
S31508007E9006460D464CF07CFB1A430BD14CB11948EB
S31508007EA0FFF7A0F90123CDE900991A461946FFF70D
S31508007EB0BBFC0024304629463C2200234CF068FBD4
S31508007EC0013A1A4308BF01244DF0E5FFD2E74FF007
S31508007ED00009D8E7996D0020150407081E0407084D
S31508007EE06104070898040708CF040708000507086F
S31508007EF09A030708100507085E0507089905070885
S31508007F00716D0020B8530708FCC300202DE9FF4710
S31508007F108268CC4DD2B2052A2A7000F2C981CA4EAF
S31508007F2033889A4200F0C481C84C00924FF48061AD
S31508007F30C74A206816F03AFF4DF02BFF2368024621
S31508007F40C449002056F062FF4DF023FF226801461F
S31508007F50C04816F003FF2F787B1E042B35D801F096
S31508007F604DFB02460B46BC4901EBC707C7E9002390
S31508007F702B785F1E51F8332001EBC70C01EBC300C9
S31508007F8051F837104068DCF80470521A60EB0701A4
S31508007F90B24800EBC30740F833207960CDE90021E9
S31508007FA04FF48061AE4A206816F000FF4DF0F1FEEE
S31508007FB0A84902462368002056F028FF4DF0E9FE3E
S31508007FC022680146A34816F0C9FE2B78052B40F017
S31508007FD08F80A14AA349D2E90A3C0A88DFF8AC9205
S31508007FE0013292B2012AC9E9003C20689E4F0A80F4
S31508007FF040F06181CDE9003C4FF480619B4A16F060
S31508008000D5FE4DF0C6FE236802469249002056F07A
S31508008010FDFE4DF0BEFE226801468E4816F09EFE15
S3150800802000231A46DFF87482C7E90032404667F033
S3150800803020FB8F4B87B295F8009018804DF0A9FE6B
S31508008040C7F580614B468B4A009008EB070016F08F
S31508008050ADFE276895F800804DF09BFE43464FF429
S315080080608061844A0090384616F0A0FE4DF091FED5
S31508008070236802467749002056F0C8FE4DF089FE6F
S3150800808022680146734816F069FE02A8FFF70AF847
S31508008090794F029B79493B60039B79487B60FB7962
S315080080A0BA7916F06FFE774B1B684BB17648FFF727
S315080080B053F801231A461946CDE90033FFF7B4FBF6
S315080080C00121042000F0B6FF01222220114600F00B
S315080080D0D9FF01220B20114600F0D4FF01222520EA
S315080080E0114600F0CFFF01221D20114600F0CAFFFD
S315080080F03388052B40F0DA80574F4FF00009BA460F
S31508008100B84601F07BFA2A7809F101094A45EAE8F6
S315080081100201F6DA0020DFF844C13B46B968D3F815
S315080081200CE00130D3E90093B1EB09016EEB0303D0
S315080081304CF8081F824207F10807CCF80430ECDA3D
S3150800814008EBC20158F83230504F4A68DFF85081C0
S31508008150D7E90001C8E900321B1A62EB0102CDE932
S3150800816000324FF480614A4A206816F01FFE4DF02F
S3150800817010FE236802463749002056F047FE4DF0A8
S3150800818008FE22680146334816F0E8FDD8E90032B1
S31508008190DFF810C1DFF80481DCE900011B1842EBA7
S315080081A00102D7E900105B1A62EB00024046CCE9EF
S315080081B0003267F05EFA2E4B87B295F80090188069
S315080081C04DF0E7FDC7F580614B46324A009008EB53
S315080081D0070016F0EBFD276895F800804DF0D9FDED
S315080081E043464FF480612B4A0090384616F0DEFD70
S315080081F04DF0CFFD236802461649002056F006FECC
S315080082004DF0C7FD226801240146124816F0A6FD66
S31508008210214B214604201C7000F00CFF2246214603
S31508008220222000F02FFF224621460B2000F02AFFCD
S3150800823022462146252000F025FF224621461D20FC
S3150800824032E000BFE1750020A06400201C2F00204A
S31508008250CF050708AAFE06083010002000100020E7
S31508008260E4050708A4640020601000200D0607082E
S31508008270A26400204A060708D16D002015FD0608ED
S31508008280927600206C2E0020B8530708781000203C
S315080082905506070872060708E2750020E16D0020FA
S315080082A0701000206810002000F0ECFE2B78338058
S315080082B004B0BDE8F087DFF85C80D8E900125B1AE5
S315080082C06CEB0202CDE900324FF480610F4A16F0DA
S315080082D06DFD4DF05EFD236802460D49002056F0FF
S315080082E095FD4DF056FD22680146094816F036FD03
S315080082F0D7E90001D9E900321B1842EB0102D8E997
S3150800830000105B1A62EB00028CE600BF2E06070817
S31508008310AAFE06087010002084B010B58CB00EAC0A
S3150800832084E80F009DF87F30154C0B939DF87C3040
S315080083304FF48061AE3B0A939DF87D302046AE3BF4
S315080083400993BDF876300F4A0893BDF87430079341
S315080083501B9B06931A9B0593199B0493189B0393DF
S31508008360179B0293169B01939DF894300093269BC6
S3150800837016F01CFD20460CB0BDE8104004B070474E
S31508008380E17100207D0607082DE9F041AEB016AF71
S315080083900446F81C58F039FA18B181B21A4816F092
S315080083A0DDFCFB78A3422DD96A46A2EBC3039D46A2
S315080083B016AD2946F81C58F03DFA18B181B2134893
S315080083C016F0CCFCDFF850803E1D314605EBC400A4
S315080083D005EBC40558F047FAEB79AA790C494046EB
S315080083E016F0D0FC492207F114016846CDE9134876
S315080083F067F032F996E80F00FFF78EFF6037BD4643
S31508008400BDE8F0810348F9E7A8FC0608E1FC060880
S3150800841015FD0608B8530708AA76002070B50D465C
S3150800842004461A4E304616F099FC194816F096FC82
S3150800843041F235622946174816F090FC164816F0A0
S315080084408DFC2146154816F089FC154816F086FC61
S315080084502146144816F082FC02F032FC124816F047
S315080084607DFC124816F07AFC114816F077FC114884
S3150800847016F074FC104816F071FC104816F06EFCE5
S315080084803046BDE8704016F069BC00BFF0570708D3
S315080084905507070889070708AA070708BB07070833
S315080084A0FB0707080F08070867080708BD08070835
S315080084B00D09070849090708A3090708FE09070857
S315080084C030B587B004460C4B0C4D04930C4B4FF457
S315080084D07A7103930B4B284602930B4B0B4A019375
S315080084E00B4B00930B4B16F061FC2146284607B050
S315080084F0BDE830404DF038BCFC750020AF76002052
S315080085002E760020E3750020A50207083C0A070816
S31508008510A27600209A76002070B59AB004460DF12E
S31508008520170058F072F901F069F801F041F82821AE
S31508008530024606A816F03AFC01F060F8104A10AE9A
S31508008540D2E90032C01A61EB020101F031F82821A4
S315080085500246304616F02AFC9DF81730094D02935C
S31508008560094B0A4ACDE900634FF47A7106AB2846EF
S3150800857016F01CFC214628464DF0F6FB1AB070BDD5
S3150800858078100020AF76002092760020B40A0708FB
S3150800859038B50446064D4FF47A712846054B064A07
S315080085A016F004FC21462846BDE838404DF0DCBBF1
S315080085B0AF7600209A760020971B090838B504463E
S315080085C0064D4FF47A712846054B064A16F0EEFB1F
S315080085D021462846BDE838404DF0C6BBAF76002098
S315080085E0A2760020971B090838B50446064D4FF4B5
S315080085F07A712846054B064A16F0D8FB21462846C6
S31508008600BDE838404DF0B0BBAF760020A50207089C
S31508008610971B090838B50446064D4FF47A71284663
S31508008620054B064A16F0C2FB21462846BDE83840E7
S315080086304DF09ABBAF760020E3750020971B09081A
S3150800864010B59AB08389044653B300218269D15480
S315080086508069154901AA4CF06BF9E0B1134901A8E4
S3150800866067F00FF840B958F00CF858F0A5F84DF037
S3150800867004FC00201AB010BD0D4901A867F001F8E6
S3150800868010B957F0FEFFF2E70A4A01AB4FF47A71C8
S31508008690094816F08BFB214607484DF065FBE9E7CC
S315080086A0064B014AF2E700BF971B09080B0B0708A0
S315080086B0150B07081F0B0708AF7600202E7600203B
S315080086C038B50446064D4FF47A712846054B064AD6
S315080086D016F06CFB21462846BDE838404DF044BBF1
S315080086E0AF760020FC750020971B090838B50446AC
S315080086F000F084FF00F05CFF064D03464FF47A71E4
S315080087002846054A16F052FB21462846BDE8384059
S315080087104DF02ABBAF760020971B090838B50446EA
S31508008720074DFEF701FD4FF47A712846054B064AB8
S3150800873016F03CFB21462846BDE838404DF014BBF0
S31508008740AF76002092760020971B090813B5002300
S31508008750019383890446B3B10F49806901AA4CF095
S31508008760E7F880B19DF80400FFF70EFE03460B4AB2
S315080087704FF47A710A4816F019FB214608484DF05D
S31508008780F3FA02B010BD0DF1030058F03EF89DF85B
S315080087900330044AECE700BF44600908971B090840
S315080087A0AF760020340B070830B58BB00446114B62
S315080087B0114DD3E90A01CDE90801D3E90801CDE94C
S315080087C00601D3E90601CDE90401D3E90401CDE99F
S315080087D002014FF47A71D3E902232846CDE9002332
S315080087E0064A16F0E3FA214628460BB0BDE83040A3
S315080087F04DF0BABA00100020AF760020470B0708E4
S3150800880038B50446064D4FF47A712846054B064A94
S3150800881016F0CCFA21462846BDE838404DF0A4BAF1
S31508008820AF760020E16D0020971B090837B50022B6
S31508008830838904460C4D01924BB18169CA548069FB
S315080088400A4901AA4CF074F808B1019B2B802B88C1
S31508008850074A4FF47A71074816F0A8FA21460548E0
S315080088604DF082FA03B030BDFCC30020446009080D
S315080088700E830908AF76002013B5002283890446C3
S31508008880019273B18169CA5480690C4901AA4CF0F6
S315080088904FF830B19DF80400094B0121187000F01B
S315080088A0C9FB019B074A4FF47A71074816F07EFA0E
S315080088B0214605484DF058FA02B010BD4460090833
S315080088C0FEC400200E830908AF76002008B5828909
S315080088D00AB9002008BD0549806966F017FE002818
S315080088E0F7D1FEF7BFFB0120F4E700BF620B0708CC
S315080088F038B50446084D094B4FF47A711B8828464B
S31508008900074A16F053FA2046FFF7E0FF21462846A5
S31508008910BDE838404DF028BAAF760020A4640020A0
S315080089204460090838B5044600F068FE0C4A0D4D47
S31508008930D2E90032C01A61EB020100F039FE4FF4A9
S315080089407A710346084A284616F030FA2046FFF799
S31508008950BDFF21462846BDE838404DF005BA00BFA0
S3150800896078100020AF760020971B090870B50446DA
S3150800897000F044FE0F4E104AD6E90056D2E90032FE
S315080089805B1B62EB0602181842EB010100F010FEB1
S315080089900A4D03464FF47A712846094A16F006FA34
S315080089A02046FFF793FF21462846BDE870404DF064
S315080089B0DBB900BF7810002068100020AF760020D1
S315080089C0971B090838B50B4B0446D3E9000100F09C
S315080089D0EFFD094D03464FF47A712846074A16F00B
S315080089E0E5F92046FFF772FF21462846BDE83840DC
S315080089F04DF0BAB960100020AF760020971B090821
S31508008A002DE9F743064600F0F9FDDFF89890DFF800
S31508008A109880D9E90032D8E900545B1B62EB04025E
S31508008A20181842EB01014BF0EDF800221A4B4BF0F7
S31508008A301FF904460D4600F0E1FDD9E90032DFF8DA
S31508008A406CE0164FDEE900CE13EB0C0342EB0E0288
S31508008A50D8E900CEB3EB0C0362EB0E02181842EB12
S31508008A6001014BF0CFF80B460246294620464BF04B
S31508008A7029FA0B4ACDE900014FF47A71384616F007
S31508008A8095F93046FFF722FF3146384603B0BDE870
S31508008A90F0434DF069B900BF00005940AF76002099
S31508008AA0680B070868100020781000206010002066
S31508008AB02DE9F04FA7B0834600F0A0FD3F4D404C8E
S31508008AC0D5E90032D4E900679B1B62EB0702181848
S31508008AD042EB010100F06CFD0DF14809394F0246E1
S31508008AE02821484616F062F9D7E9000100F060FD32
S31508008AF00DF1700A02462821504616F057F900F083
S31508008B007DFDD5E900322668DFF8CC809B1B6668B8
S31508008B1062EB0602181842EB01014BF073F80022CB
S31508008B20294B4BF0A5F8CDE9100100F067FDD5E912
S31508008B300032D7E900575B1942EB0702D4E9005423
S31508008B405B1B62EB0402181842EB01014BF05AF862
S31508008B5002460B46DDE910014BF0B4F94BF06AFB0F
S31508008B604BF02EF8CDE90B9ACDE90E01174B1B8871
S31508008B700A93174BD3E90A01CDE90801D3E908019D
S31508008B80CDE90601D3E90601CDE90401D3E90401DB
S31508008B90CDE902014FF47A71D3E902234046CDE9C3
S31508008BA000230C4A16F002F95846FFF78FFE59467D
S31508008BB040464DF0D9F827B0BDE8F08F6810002080
S31508008BC0781000206010002000005940A46400209E
S31508008BD0001000206E0B0708AF7600202DE9F04341
S31508008BE087B00023012503930593984B984E994C1B
S31508008BF00093994B68460196029404938DF80C509D
S31508008C0001F0F8FF30B140F28A21944B944A954816
S31508008C104BF04EFE944BDFF8E4920093934B684674
S31508008C20CDE9019404938DF80C5001F0E3FF20B1CF
S31508008C3040F29221894B8A4AE9E78D4B6846CDE98D
S31508008C4000398C4B029404938DF80C5001F0D2FF36
S31508008C5020B140F29A21814B814AD8E7864B684673
S31508008C600093864B8DF80C50CDE90134844B049360
S31508008C7001F0C0FF20B140F2A221784B784AC6E73E
S31508008C80804B814F0093814B6846CDE9017404936C
S31508008C908DF80C5001F0AEFF20B140F2AA216F4BBF
S31508008CA06F4AB4E77A4B6846CDE90037794B0294A8
S31508008CB004938DF80C5001F09DFF20B140F2B221CB
S31508008CC0664B674AA3E7744B6846CDE90037734B92
S31508008CD0029404938DF80C5001F08CFF20B140F2F9
S31508008CE0BA215E4B5E4A92E76D4B6846CDE900367F
S31508008CF06C4B029404938DF80C5001F07BFF20B165
S31508008D0040F2C221554B564A81E7674BDFF8F0819E
S31508008D100093664B6846CDE9018404938DF80C50A0
S31508008D2001F068FF20B140F2CA214C4B4C4A6EE76D
S31508008D305F4B6846CDE900395E4B029404938DF883
S31508008D400C5001F057FF20B140F2D221434B444A60
S31508008D505DE70125584B6846CDE90036574B029426
S31508008D6004938DF80C5001F045FF20B140F2DA214A
S31508008D703A4B3B4A4BE7524B6846CDE90038514BD4
S31508008D80029404938DF80C5001F034FF20B140F2A0
S31508008D90E321324B324A3AE74B4B684600934B4B3A
S31508008DA08DF80C50CDE90134494B049301F022FFAC
S31508008DB020B140F2EB21294B294A28E7454B684662
S31508008DC0CDE90038444B029404938DF80C5001F019
S31508008DD011FF20B140F2F321204B214A17E73F4B00
S31508008DE0684600933E4B8DF80C50CDE901343D4B57
S31508008DF0049301F0FFFE20B140F2FB21174B184AFD
S31508008E0005E7394B6846CDE90038384B0294049398
S31508008E108DF80C5001F0EEFE20B140F203310F4BF5
S31508008E200F4AF4E6324B68460093324B8DF80C50E5
S31508008E30CDE90134304B049301F0DCFE002861D003
S31508008E4040F20B31054B064AE1E600BF0D0C070858
S31508008E50170C07081C0C0708C1840008210C070812
S31508008E60530E0708610C07086F0C07089185000860
S31508008E70800C0708BD8500088B0C0708970C0708A7
S31508008E80E98500089B0C070862AD090815860008E5
S31508008E90AD0C070841860008BF0C0708C186000804
S31508008EA0CD0C070819850008D90C0708ED860008B7
S31508008EB0EE0C07081D870008FD0C07084D870008FB
S31508008EC00E0D070825890008200D0708400D07081C
S31508008ED0A9870008460D0708C5890008690D07080F
S31508008EE0850D0708F1880008890D07086D890008AF
S31508008EF0A90D0708C60D0708018A00087C0C070893
S31508008F00E90C0708284B6846CDE90037274B029439
S31508008F1004938DF80C5001F06DFE20B14FF44571A5
S31508008F20234B244A73E6244B6846CDE90036234B87
S31508008F30029404938DF80C5001F05CFE20B140F2C7
S31508008F401F311B4B1B4A62E61D4B1E4C00931E4BE2
S31508008F50684601931D4B029404938DF80C5001F05A
S31508008F6049FE20B140F25931114B124A4FE6184BCF
S31508008F7068460093174BCDE90134174B0493012338
S31508008F808DF80C3001F036FE20B140F26131084B05
S31508008F90084A3CE61E221521104815F0DFFE15206A
S31508008FA007B0BDE8F08300BFCC0D070801880008AC
S31508008FB0210C0708530E0708D50D0708B18A0008C3
S31508008FC0E90D0708FD0D07083C0D07082D88000860
S31508008FD0060E0708160E0708798800081C0E0708EB
S31508008FE000B58BB0FFF7FAFD2022002102A866F033
S31508008FF028FB0B4B41F28832019318230021CDE957
S315080090000623084801AA06F0A7F928B95721064BEE
S31508009010064A07484BF04CFC0BB05DF804FB00BF52
S315080090206B0E07084D7A0008740E0708950E070898
S31508009030870E07082DE9F04107468020884650F03C
S31508009040EAFC00240546431C05F8144003F814708E
S315080090500134232CF8D12946204657F096F90646BE
S31508009060B8F1000F05D003463A462146044815F0E4
S3150800907075FE284650F0E1FC3046BDE8F08100BF99
S315080090809E0E0708F7B58DF804008DF805100546FD
S315080090900E46012001A9174657F077F904462FB165
S315080090A0034632462946034815F058FE204603B0C3
S315080090B0F0BD00BFC90E070810B583780446852B96
S315080090C00CD1164B164A1749186821F0A1FA164B07
S315080090D01860164803F040FB154B1860A378832BDD
S315080090E01BD1A068134B104C18602368984214D102
S315080090F040F2CF420023104957F017FA80B20028F1
S3150800910014BF012200220D4B18800D4B1A7004D192
S31508009110206857F0F4F90B4B186010BD10BE0020FC
S3150800912014BE0020B82E00200CBE0020C42E00203D
S31508009130B42E002008BE0020987A0020A6640020DD
S31508009140977A002004BE00202DE9F341884C4FF49D
S315080091508061884A206815F029FE4CF01AFE2368BB
S3150800916002468549002055F051FE4CF012FE226851
S315080091700146814815F0F2FD02220121002057F030
S315080091809EF97E4E03464FF480617D4A3060206822
S3150800919015F00CFE4CF0FDFD2368024676490020CA
S315080091A055F034FE4CF0F5FD22680146724815F07C
S315080091B0D5FD32687349744B7448B2F1FF3F08BF56
S315080091C00B46734915F0CAFD35686A1C0CD106F0C2
S315080091D06DF94EF0E4F92A4601466E4815F0BEFDD3
S315080091E006F064F94EF0E0F9DFF8BC810023424648
S315080091F042F80C3B684B03F1100715461868596886
S31508009200083303C5BB422A46F7D1644F644D3888F4
S3150800921057F040F9634BA8F804001A6862493068A9
S3150800922021F02EF95749584B0246B0F1FF3F08BFC7
S315080092300B4628605D49554815F090FDD5F8008025
S31508009240B8F1FF3F0CD106F031F94EF0A8F94246C5
S315080092500146504815F082FD06F028F94EF0A4F9AB
S315080092605349852002F024F94649474B0246B0F196
S31508009270FF3F08BF0B4628604E49444815F06EFD6F
S31508009280D5F80080B8F1FF3F0CD106F00FF94EF083
S3150800929086F9424601463F4815F060FD06F006F994
S315080092A04EF082F94249832002F002F93549364BDD
S315080092B00246B0F1FF3F08BF0B4628603E493348D7
S315080092C015F04CFDD5F80080B8F1FF3F0CD106F03B
S315080092D0EDF84EF064F9424601462E4815F03EFD7B
S315080092E006F0E4F84EF060F90021306857F049F9C5
S315080092F02449254B2860B0F1FF3F08BF0B460246BC
S315080093002E49224815F02AFD2D686B1C0CD106F053
S31508009310CDF84EF044F92A4601461E4815F01EFDC2
S3150800932006F0C4F84EF040F9254803F015FA254D25
S315080093303A882860009203464FF48061224A2068E2
S3150800934015F034FD4CF025FD236802460A49002035
S3150800935055F05CFD4CF01DFD22680146064815F0E7
S31508009360FDFC286802B0BDE8F0414DF0CCBC00BF5A
S315080093701C2F0020EE0E0708AAFE060810BE0020C5
S31508009380110F0708869D0908362309083C0F0708A8
S31508009390280F07084A0F0708D0DD0808FEC3002073
S315080093A004BE002014BE0020D82E0020590F07083E
S315080093B0B99000086B0F0708C50F070819100708AA
S315080093C0E42E0020B42E00202D1007082DE9FF47B3
S315080093D02B4C2668C6B92B4D4FF480612A4A28685B
S315080093E015F0E4FC4CF0D5FC2B68024627493046BC
S315080093F055F00CFD4CF0CDFC2A680146234815F0C3
S31508009400ADFC236801332360214F3B78A3B30025C5
S315080094102368DFF888900133DFF884A02360B9F861
S3150800942000301C480AF8035003F096F9DFF87480F8
S31508009430144EC8F80000CDF808A0B9F800304FF46B
S315080094408061CDE90003144A2368306815F0AEFC44
S315080094504CF09FFC336802460C49284655F0D6FC6A
S315080094604CF097FC32680146084815F077FCD8F8A6
S3150800947000004DF048FC3D7004B0BDE8F08700BF21
S31508009480B02E00201C2F002060100708AAFE060830
S31508009490977A0020C42E002076100708A6640020BC
S315080094A0987A0020B42E0020044AD2E9003101330C
S315080094B041F10001C2E90031704700BF8810002061
S315080094C013B5174805F0CEFE164B186028B9672164
S315080094D0154B164A16484BF0EBF900200021154BA0
S315080094E0154A1A60154BC3E900010CF02DFB04461A
S315080094F030B10146124815F031FC204602B010BDC5
S315080095000CF0C4FB23460146CDE900440D4A0E483B
S3150800951050F04DFB04460028EFD001460B48EAE719
S3150800952008120708F82E00209A100708E211070803
S31508009530B71007081C2F00207A7F0020881000200B
S31508009540CA100708A9940008FC2E0020F510070881
S315080095502DE9F84316469946144A002305460C4653
S315080095604BF016F8214630803C22284600234BF063
S315080095700FF8002380460F46164628464FF46162C8
S3150800958021464BF005F8182200234BF001F8404617
S3150800959089F8002039463C2200234AF0F9FF089B47
S315080095A000201A70099B1E70BDE8F88380510100DF
S315080095B010B586B00DF11503019305AB00930DF1B7
S315080095C016020DF11303FFF7C3FF9DF81530094C7A
S315080095D002939DF81430122101939DF8133020460A
S315080095E00093054ABDF8163015F0E0FB204606B094
S315080095F010BD00BF687F00202C110708D0B50D4CA0
S315080096004FF0FF3120684DF0F2FE28B14F210A4B8A
S315080096100A4A0B484BF04CF90A4B2068D3E9006715
S315080096204DF019FF18B15521074B084AF1E73046A6
S315080096303946D0BDF82E00203F110708C511070886
S31508009640B7100708881000207B110708A81107081B
S31508009650F7B5544C4FF48061534A206815F0A6FBC1
S315080096604CF097FB236802465049002055F0CEFB84
S315080096704CF08FFB226801464C4815F06FFB03221D
S315080096804B49002056F01BFF4A4D03464FF48061B4
S31508009690494A2860206815F089FB4CF07AFB236854
S315080096A002464249002055F0B1FB4CF072FB226895
S315080096B001463E4815F052FB2A684049404B41484E
S315080096C0B2F1FF3F08BF0B463F4915F047FB2E682E
S315080096D0721C0CD105F0EAFE4DF061FF32460146D8
S315080096E03A4815F03BFB05F0E1FE4DF05DFF384FBB
S315080096F000233A4642F80C3B364B03F1100C16464B
S3150800970018685968083303C663453246F7D1324E9E
S31508009710308856F0BFFE314B2D491A68B880286844
S3150800972020F0AEFE2E4D2549254B2860B0F1FF3FAF
S3150800973008BF0B4602462B49224815F00FFB2D6839
S315080097406B1C0CD105F0B2FE4DF029FF2A460146E6
S315080097501E4815F003FB05F0A9FE4DF025FF22482B
S3150800976002F0FAFF214D32882860009203464FF432
S3150800977080611F4A206815F019FB4CF00AFB236824
S3150800978002460A49002055F041FB4CF002FB2268CC
S315080097900146064815F0E2FA286803B0BDE8F0402D
S315080097A04DF0B1BA1C2F002018120708AAFE0608A9
S315080097B0020001001CBE002041120708869D090808
S315080097C0362309083C0F0708581207084A0F0708E6
S315080097D0482F0020D0DD080800C4002020BE002045
S315080097E018BE00206C120708542F0020242F0020D2
S315080097F07E1207082DE9F04385B0314C2668C6B9B4
S31508009800304D4FF48061304A286815F0CFFA4CF095
S31508009810C0FA2B6802462D49304655F0F7FA4CF047
S31508009820B8FA2A680146294815F098FA23680133D8
S315080098302360274B274D284E28480193009500237F
S3150800984040F2CF423146006820F08CFEDFF8948063
S315080098500028C8F800002FDD002723683754013395
S3150800986005F10C00236002F077FFDFF87C90154DB8
S31508009870C9F800000296D8F800304FF48061CDE9A7
S315080098800003174A2368286815F090FA4CF081FA05
S315080098902B6802460D49384655F0B8FA4CF079FA65
S315080098A02A680146094815F059FAD9F8000005B0A2
S315080098B0BDE8F0434DF027BA05B0BDE8F08300BF18
S315080098C0202F00201C2F0020A6120708AAFE060833
S315080098D020BE0020282F00207A8300201CBE0020EE
S315080098E0BE12070818BE0020242F002010B5284CE9
S315080098F004F05EFC4DF018FC236F012023F00703EB
S3150800990043F0030323674DF016FC224B00209B6AA5
S31508009910DB015EBF4FF480321F4B9A62D4F82031C8
S3150800992023F0070343F00203C4F82031D4F82831A2
S3150800993023F0070343F00203C4F82831D4F8403172
S3150800994023F0030343F00203C4F84031D4F860312E
S3150800995023F0030343F00203C4F86031D4F840321D
S3150800996023F0030343F00203C4F84032D4F800326C
S3150800997023F0070343F00203C4F80032D4F8083290
S3150800998023F0070343F00203C4F8083210BD00BFF2
S31508009990008000500040005A0060005A30B58FB071
S315080099A0174D06AC0FCD0FC495E80F0084E80F00DD
S315080099B00E24002122460DF10A0065F042FE4FF4FE
S315080099C07022104B6946CDE900230D238DF8083027
S315080099D00D4B06AA03932023049340F201130B4868
S315080099E0ADF814300A4B8DF809400BF0BBF8044665
S315080099F000214FF4E1304DF0DFF920460FB030BDBD
S31508009A00D41B07083C00015B4A8800201030002060
S31508009A10682F002001484FF0A2BE00BF103000207A
S31508009A20F8B50C46064611462046154656F008FE79
S31508009A300746284602F090FE033C012C054604D949
S31508009A4047B13146064815F089F92846BDE8F84079
S31508009A504DF059B902463146024815F07FF9F4E748
S31508009A6039220708592207080121024B8140186844
S31508009A704DF006BC6830002008B5074B4FF0FF31A3
S31508009A8018684DF0B4FC30B140F24F31034B044A2C
S31508009A9004484AF00DFF08BD6C300020662207080E
S31508009AA0AB2607089B22070808B5064B18684DF031
S31508009AB0D2FC30B140F25531034B044A04484AF00F
S31508009AC0F7FE08BD6C300020002307089226070819
S31508009AD09B22070873B5002300220546CDE900231B
S31508009AE00CF0BAF86A460CF0F9F800982D4A019974
S31508009AF0D2E90232C01A61EB02012B4ACDE9000114
S31508009B00FCF782FC284802F04FFE284B002814BFB9
S31508009B1006461E466B68002B41D1AC6814F001045A
S31508009B200DD00121224A2348FFF77AFF204802F088
S31508009B3013FE3146044602461F4815F00FF9AB6876
S31508009B409A070DD503211D4A1D48FFF769FF1B48D3
S31508009B5002F002FE3146044602461A4815F0FEF89F
S31508009B60AB685B070DD50421174A1848FFF758FF5D
S31508009B70154802F0F1FD314604460246144815F030
S31508009B80EDF820464DF0BFF830464DF0BCF86A684F
S31508009B901AB11049104815F0E1F802B070BD00245A
S31508009BA0EFE700BFA010002090100020B853070868
S31508009BB07B880020262307082D2307089B8800207A
S31508009BC04D23070859230708AB8800208123070877
S31508009BD08C230708B6270708B6230708F7B5002217
S31508009BE00023CDE9002344680646344D64B1214676
S31508009BF0334815F0B3F80120FFF736FF012128682E
S31508009C004DF077FB03B0F0BD502221462D4865F094
S31508009C1018FD2D4815F0A2F801212C4A2C48FFF70B
S31508009C20FFFE2146274A2B48FFF7FAFE02212A4A59
S31508009C302A48FFF7F5FE0321294A2A48FFF7F0FECE
S31508009C40294A04212948FFF7EBFE0CF005F86A4675
S31508009C500CF044F8DDE90017254BD3E908208A18EB
S31508009C6047EB000C9868C3E90017121AD868C3E9CD
S31508009C7002176CEB0000C3E908209A6A1D480132F6
S31508009C809A62D3E90623891A67EB0303CDE9001321
S31508009C904FF47A73B1FBF3F115F060F82046FFF73D
S31508009CA0E3FE022128684DF024FB7268002AA9D039
S31508009CB01149124815F052F8A4E700BF6830002091
S31508009CC0D02307086B880020F22307087B8800202A
S31508009CD026230708FF2307088B8800200A2407087D
S31508009CE09B88002018240708AB880020272407082B
S31508009CF0A01000203824070899270708B623070864
S31508009D00F7B50023002205461548CDE9002315F0CE
S31508009D1025F80BF0A1FF6A460BF0E0FFDDE900101D
S31508009D20104BD3E904248A18D3E9067640EB0404D9
S31508009D30D21B64EB0604C3E90424C3E90010C3E993
S31508009D4006106A681AB10849084815F007F801208C
S31508009D50FFF78AFE0022064B1A7003B0F0BD00BF5B
S31508009D6041240708A010002079270708B62307080A
S31508009D706A88002010B50F490446A1F1280056F05C
S31508009D8016FC18B90C490D4814F0E8FF0220FFF735
S31508009D906BFE0120FFF768FE094B012118684DF09C
S31508009DA0A8FA62682AB1BDE810400649064814F0C8
S31508009DB0D5BF10BD58300020303000205124070888
S31508009DC06830002056270708B62307084168014867
S31508009DD014F0C4BF7824070810B50B4B04468068F6
S31508009DE01870C0B202F0CEFC014618B1A268074846
S31508009DF014F0B4FF62682AB1BDE81040044905486A
S31508009E0014F0ACBF10BD00BF6A880020A424070860
S31508009E1038270708B623070842681AB102490348D3
S31508009E2014F09CBF704700BF1F270708B623070812
S31508009E3042681AB10249034814F090BF704700BF40
S31508009E40FD260708B623070808B50C4805F00AFAE0
S31508009E500B4B186030B940F29F110A4B0A4A0B485F
S31508009E604AF026FD0A4805F0C3F90A4B186020B9DE
S31508009E704FF4D171084B044AF1E708BD08280708D2
S31508009E806C300020BC240708E62607089B22070832
S31508009E90F827070868300020D224070808B50B46BB
S31508009EA001460348032200684DF044FAC00F08BD76
S31508009EB06830002010B5FFF7DFFD034B1C78FFF76D
S31508009EC0F3FD204610BD00BF6A88002010B50021AA
S31508009ED0254B13F8012B0AB989B203E00131B1F514
S31508009EE0006FF6D1013102201F4A89B256F0DBFB1A
S31508009EF0044628B91D4B13F8012B52B9A4B20CE03D
S31508009F0001461B4814F02AFF0B20FFF7ADFD20463B
S31508009F1010BD0134B4F5006FEDD10134A1B20620AD
S31508009F20124A56F0D7FB044628B9124B13F8012BF0
S31508009F303AB9A4B209E001460F4814F00FFF0C2005
S31508009F40E3E70134B4F5006FF0D10134A1B2012082
S31508009F50084A56F0D6FB04460028D8D001460748DA
S31508009F6014F0FCFE0D20D0E7F41B0708711E070845
S31508009F70EA24070824210708202507085525070885
S31508009F8030B5A3B0002300228DF807300023CDE9B1
S31508009F900223FFF771FD382239493A4865F05CFB20
S31508009FA00DF1070056F0F4FB024618B1364937485A
S31508009FB014F0D4FE9DF8071031B1354814F0CEFEE2
S31508009FC0FFF772FD23B030BD2E4C782204A865F049
S31508009FD038FB94F8210002F0DBFB054694F82300D1
S31508009FE056F05FFC014618B12A4814F0B7FEE7E7B9
S31508009FF02946782204A865F02FFB022304A88DF8C9
S3150800A0007C3056F061FC014630B1234814F0A6FEB8
S3150800A0100520FFF729FDD3E794F9220056F088FBBF
S3150800A020014620B11D4814F099FE0620F1E71C48A8
S3150800A03056F07CFC014608B11A48D6E7FFF746FFFA
S3150800A0400028BDD1204604F1280156F0B0FA05468D
S3150800A05080B90BF001FE02AA0BF040FEDDE9020111
S3150800A060114BC3E90001C3E90201C3E90601214610
S3150800A0700E48BAE70420FFF7F7FC29460C48B4E770
S3150800A0801828070830300020C4260708B623070812
S3150800A0908A250708B5250708DF2507080A260708B9
S3150800A0A01922070831260708A0100020602607088D
S3150800A0B077260708402906D1C378202B08D005D86B
S3150800A0C013F0EF0F04D04FF0FF307047302BFAD162
S3150800A0D08078A528F7D8872806D85F2802D013D80D
S3150800A0E004280AD800207047094B7830C0B2C3400C
S3150800A0F003F00103013B58B27047413804284FF07A
S3150800A100FF3098BF0020704780F080000628F6E7E9
S3150800A110B100003F2DE9F04F89B000260F461546DD
S3150800A12004469846149B9DF84CA0CDE90632039048
S3150800A130059000EB0209079B23B90795002E45D128
S3150800A14000264CE0BAF1080F069B2CD1FF2B26D827
S3150800A1509D42059A23D31A44944220D84A451ED8CC
S3150800A1605A1C2146164405A82A464CF084FA07903C
S3150800A1700028E2D0059B1B781909DED121460693F3
S3150800A18005A801234CF077FA07AB079000932246FF
S3150800A1902B4605A906A84CF07CFA0028CBD000204F
S3150800A1A009B0BDE8F08FBAF10B0FCFD0BAF10F0F97
S3150800A1B0CCD0BAF1140FC9D0BAF1110F01D1022BC4
S3150800A1C0C5E7BAF1040FC3D1082BC0E7013EB7D0E3
S3150800A1D0FB68B0B29847C8F800000028DFD0129B89
S3150800A1E0AAF1040A1E800123D8F800705FFA8AFBD8
S3150800A1F0D8F80020B91AB14201DA079909B90398C3
S3150800A200CEE76BB90123234903FA0BF30B4204D1BA
S3150800A21013F0900F03D02F2300E026233B7001375D
S3150800A220DDF85090BA1A4A44B242B8DCA9450399F7
S3150800A230B5D801EB09039C42B1D862199342AED84E
S3150800A2404A46384665F008FA4B462A46214603A888
S3150800A2504CF011FA034607904F440398002B9FD001
S3150800A26003785FEA13199BD10DF1480A4AF8083FAB
S3150800A2702146012303A84CF0FEF907AB079000938B
S3150800A28022462B46504603A94CF003FA4B460028B3
S3150800A290AED084E7012801002DE9F04F8BB0814646
S3150800A2A00F461D46164622B9002420460BB0BDE8C7
S3150800A2B0F08F0329F8D90028F6D04CF032FA044674
S3150800A2C00028F1D03278314622F03F032B7073789C
S3150800A2D002F03002C270837073883A465BBA038113
S3150800A2E0331D069306A800234CF0C5F9327807906B
S3150800A2F002F00F022270CAB1082A6DD82369002B12
S3150800A3006AD19742069967D38B189E4264D8F0198A
S3150800A310834261D848464CF044FA206100285BD055
S3150800A3203A463146237806A84CF0A5F94FF0000BBB
S3150800A330069BDFF8BCA39B1BFB1A0793DDE90632D5
S3150800A340002A00F0D0811A78FF2A0FD19A1BBA4248
S3150800A3500ADA1A78FF2A3FD101339E1BBF1BBFB208
S3150800A360A781002F38D0A361002336E002F00F033F
S3150800A370120931460893099201233A4606A84CF079
S3150800A3807AF907AD07903B463246009506A909A813
S3150800A3904CF07FF900BB099B03EB0B081FFA88F802
S3150800A3A0434519D8C34517D83B463246009506A9F2
S3150800A3B008A8CDF824804CF06CF968B9B8F11C0FE0
S3150800A3C00DD8B8F1020F07D92AFA08F3DB070CD41F
S3150800A3D0DDE90725954215D90123637065E7B8F1CC
S3150800A3E0230F02D0B8F13C0FF6D1214648464CF06F
S3150800A3F0A2F90028F0D0DDE90725AA42ECD3B8F186
S3150800A400230F4BD8B8F1020FE6D9A8F10303202B86
S3150800A410E2D801A151F823F07BA5000849A5000858
S3150800A420D9A3000825A60008CFA50008A9A50008F5
S3150800A430D9A30008D9A300080BA60008C7A40008DA
S3150800A440D9A30008EDA4000847A60008D9A3000868
S3150800A4509DA60008D9A30008D9A30008F1A50008FD
S3150800A460D9A30008D9A3000859A60008D9A300084B
S3150800A470D9A30008D9A300087BA60008BFA6000830
S3150800A480D9A30008D9A30008D9A30008D9A30008AE
S3150800A490D9A30008D9A3000805A50008B8F13C0F00
S3150800A4A09AD1042D98D8D4F81CB09BF80130002B0B
S3150800A4B092D1012329468BF8013006A84CF0CDF835
S3150800A4C0CBF8180009E0022D86D86368013383D1DA
S3150800A4D0294606A84CF0C1F86060069B9B1B9F4264
S3150800A4E0FFF47AAFFB1AC346079327E7042D3FF616
S3150800A4F073AF294606A8D4F81CB04CF0AEF8CBF8D2
S3150800A5001400EAE740F209436A1E9A423FF664AF2E
S3150800A510D4F81CB0DBF83030002B7FF45DAF2A4648
S3150800A52048460699ABF804504CF03BF9E369CBF87A
S3150800A53030001B6B002B3FF44FAF2B463A46314693
S3150800A54006A84CF098F8C8E7E369596B00297FF428
S3150800A55043AF042101910DF1160100910698494671
S3150800A56002953433FFF7D6FD069000283FF434AF42
S3150800A570E369BDF816201A70AFE76B1EFE2B3FF68F
S3150800A5802BAFD4F81CB0DBF83830002B7FF424AF9F
S3150800A5902A4648460699ABF806504CF002F9E36994
S3150800A5A0CBF838009B6BC5E7E369D96B00297FF4C4
S3150800A5B013AF082101915918029500913C33494679
S3150800A5C00698FFF7A7FD0690002886D104E7022D16
S3150800A5D03FF602AFD4F81CB0DBF8203001337FF425
S3150800A5E0FBAE294606A84CF038F8CBF8200074E7ED
S3150800A5F0E369196C00297FF4EFAE1421019103F188
S3150800A6000A01029500914033D9E76369002B7FF46C
S3150800A610E3AE0B23019304F10A030093029504F1B8
S3150800A6201403CCE7022D3FF6D7AED4F81CB0DBF8FE
S3150800A630243001337FF4D0AE294606A84CF00DF835
S3150800A640CBF8240049E70F21E369019103F10C01D6
S3150800A650029500914433B2E7032D3FF6BDAED4F818
S3150800A6601CB0DBF82C3001337FF4B6AE294606A8B9
S3150800A6704BF0F3FFCBF82C002FE7032D3FF6ACAEDB
S3150800A680D4F81CB0DBF8283001337FF4A5AE294690
S3150800A69006A84BF0E2FFCBF828001EE7022D3FF68E
S3150800A6A09BAED4F81CB0DBF8103001337FF494AEBF
S3150800A6B0294606A84BF0D1FFCBF810000DE7042D6C
S3150800A6C03FF68AAED4F81CB09BF80230002B7FF414
S3150800A6D083AE012329468BF8023006A84BF0BDFF4E
S3150800A6E0CBF81C00F9E6002B7FF430AE74E600BF09
S3150800A6F0D8C192182DE9F0410E46174698460546E8
S3150800A70028B121B11AB12C20A847044618B900244B
S3150800A7102046BDE8F0812C22002164F092FF012337
S3150800A720224623710023C4E90467E560C4F818804B
S3150800A73042F81C3F226240F2023222800A22A270AC
S3150800A740014AA3621380E3E7A864002008B504F071
S3150800A75007FD02280DD1074B4FF0FF3118684CF062
S3150800A76046FE30B14FF42471034B044A04484AF0BC
S3150800A7709FF808BD7030002050280708232A0708CC
S3150800A7808728070808B504F0EBFC02280BD1064B0E
S3150800A79018684CF060FE30B14FF42671034B044A3A
S3150800A7A004484AF085F808BD70300020E4280708F8
S3150800A7B0092A0708872807082DE9F8430D4617468A
S3150800A7C00646D8B1D1B10024DFF83480315D7FB1B7
S3150800A7D0DFF83080DFF830906F1EBC42ACBF4046D1
S3150800A7E04846013414F0BAFAAC4207D0315DF4E7B2
S3150800A7F04046013414F0B2FAA542E7D1BDE8F88321
S3150800A800EA950908B68D09080C290708F8B504461B
S3150800A81017480D46174604F025FD164B186028B94B
S3150800A8209921154B154A16484AF042F8FFF78EFF4C
S3150800A83000F08EFB134B144E002C08BF1C46134B1E
S3150800A8401349002D08BF1D4612482B462246B16003
S3150800A8507060F46035613775FFF74CFF3060FFF7BD
S3150800A86091FF00F089F9BDE8F84000F0DFB800BFB5
S3150800A870602A070870300020142907083D2A0708AF
S3150800A88087280708DB67050874300020DF67050896
S3150800A890FB670508E367050838B504460D46FFF764
S3150800A8A055FF064B21462A4653F8140CFFF7F4FCCD
S3150800A8B00446FFF767FF204638BD00BF88300020F2
S3150800A8C038B504460D46FFF741FF054B21462A4693
S3150800A8D018684BF01DFC0446FFF754FF204638BDA8
S3150800A8E074300020F8B50D460446002867D0FFF7F7
S3150800A8F02DFF334814F032FA2178324814F02EFA34
S3150800A9006178314814F02AFAA178304814F026FA0A
S3150800A910E1782F4814F022FA61682E4814F01EFADE
S3150800A92021892D4814F01AFAA1892C4814F016FA30
S3150800A93061892B4814F012FA2A4814F00FFA217884
S3150800A940C9B9294814F00AFA284814F007FA61899F
S3150800A950B9B9254814F002FA254814F0FFF9A38975
S3150800A960ABB9244814F0FAF9234814F0F7F9BDE80E
S3150800A970F840FFF707BF20692A46FFF71DFF1F4863
S3150800A980E0E760692A46FFF717FF1C48E2E76168B7
S3150800A9901B4F1C4E1C48322914BF3946314614F049
S3150800A9A0DDF9A189A0692A46FFF706FF61681648FE
S3150800A9B0322914BF3946314614F0D0F9D4E7F8BD28
S3150800A9C02C2907082F2907084329070859290708A2
S3150800A9D06C2907087F29070898290708A92907085D
S3150800A9E0BF290708D6290708022A0708E3290708FE
S3150800A9F0F3290708012A0708080B0708052A070884
S3150800AA00F1290708F0570708971B090810B50446E7
S3150800AA1018B1806908B14BF0F0FE034B2146BDE83A
S3150800AA20104018684BF09EBE7430002007B50E48DB
S3150800AA3004F018FC0D4B186028B9B1210C4B0D4ACF
S3150800AA400D4849F035FF4FF40273342200930A216A
S3150800AA500A4B0B484BF0CCFF18B1B921094B054AF4
S3150800AA60EEE703B05DF804FB742B0708AC32002050
S3150800AA70072B0708572B0708A32A0708A430002026
S3150800AA808C3000201B2B070870B50646074B1C693F
S3150800AA9014B92546284670BD25688022304629689F
S3150800AAA064F034FD0028F5D06468F1E7F032002040
S3150800AAB008B504F055FB02280DD1074B4FF0FF31BE
S3150800AAC018684CF094FC30B140F28B11034B044AE1
S3150800AAD0044849F0EDFE08BDA8380020842B070875
S3150800AAE0632E0708C42B070808B5074B4FF0FF313C
S3150800AAF018684CF07CFC30B14FF4CD71034B044A16
S3150800AB00044849F0D5FE08BDA8380020842B07085C
S3150800AB10232E0708C42B070808B504F021FB0228D2
S3150800AB200BD1064B18684CF096FC30B140F29311E5
S3150800AB30034B044A044849F0BBFE08BDA838002068
S3150800AB40262C0708402E0708C42B070808B5064B0D
S3150800AB5018684CF080FC30B14FF4D071034B044AAE
S3150800AB60044849F0A5FE08BDA8380020262C070889
S3150800AB70062E0708C42B070807B5134804F072FB0E
S3150800AB80124B186028B9B621114B124A124849F0DF
S3150800AB908FFE4FF434731E21009318220F4B104872
S3150800ABA04BF026FF014618B1BE210E4B094AEDE7C8
S3150800ABB00D4A0E4804F0D0FB18B9C3210C4B054AC0
S3150800ABC0E4E703B05DF804FBFC2E0708A83800206C
S3150800ABD0572C0708942E0708C42B0708D8350020D9
S3150800ABE0F03200201B2B0708D82E070829AD0008CD
S3150800ABF0782C070838B50F4B05461C69FFF758FF30
S3150800AC005CB90C484BF009FF70B11822294664F06C
S3150800AC1023FDFFF781FF204609E023688022296883
S3150800AC20186864F073FC18B9FFF776FF012038BD81
S3150800AC306468E5E7F032002010B50446FFF754FFD4
S3150800AC402046FFF721FF014618B9FFF77FFF0120CD
S3150800AC5010BD03484BF008FFFFF778FF0020F7E721
S3150800AC60F03200202DE9F041134B00241D69FFF74F
S3150800AC701FFF4FF434720021104864F0E2FC1826D6
S3150800AC800E4F3DB9FFF748FF0C48002C08BF284671
S3150800AC90BDE8F0811D2C0DD806FB04781822404625
S3150800ACA0296864F0D9FC24B1631E06FB0373C3F854
S3150800ACB0148001346D68E4E7F03200200833002080
S3150800ACC038B5084B084D1C69FFF70EFF1CB9BDE8DF
S3150800ACD03840FFF73BBF23682846196814F03EF84A
S3150800ACE06468F3E7F03200200EFF0608014814F006
S3150800ACF035B800BF8A2C0708014814F02FB800BFE2
S3150800AD00B92C0708014814F029B800BFF22C070827
S3150800AD10014814F023B800BF202D0708014814F095
S3150800AD201DB800BF532D07082DE9F04F85B0002642
S3150800AD3034463546DFF808A2DFF808B20396ADF8C0
S3150800AD400A604BF0A1F820B94FF47A704CF083FAF8
S3150800AD50F7E703220221002055F0B1FB431C074602
S3150800AD6006D14FF4EE716F4B6F4A704849F0A0FD5B
S3150800AD700023CAF800306E4BDFF8CCC103F1100E81
S3150800AD80624618685968083303C273459446F7D172
S3150800AD9041F2336055F07EFB2022AAF804005146A2
S3150800ADA0384603921FF06CFB013026D0DFF89C81F1
S3150800ADB04BF071F803ABCDE900B34FF48062002382
S3150800ADC0414638461FF0CEFB002840F391804146A5
S3150800ADD080B2FFF761FD05460028E9D0554813F013
S3150800ADE0BDFF00212846FFF77DFDAB78013B032B0D
S3150800ADF008D92846FFF77AFFDAE740F2E7114E4B03
S3150800AE00494AB2E7FFF72EFF29460DF10A0200F07C
S3150800AE10E1F8064670B12A46BDF80A104BF088FDDF
S3150800AE200446C0BB2846FFF7F1FD2046FFF7EEFDB6
S3150800AE3030461CE028464BF0EFFC814618B92846F8
S3150800AE40FFF75AFFB4E7FFF71FFE044648464BF0E4
S3150800AE50D4FC7CB123696BB1284698470446D0B91F
S3150800AE602846FFF7D3FD2046FFF7D0FD20464BF0D6
S3150800AE70C4FC9DE784212846FFF722FD044650B905
S3150800AE802846FFF7C3FD2046FFF7C0FD20464BF0D6
S3150800AE90B4FC26468CE720464BF0BAFCB0F5806F2A
S3150800AEA08146214603D92846FFF72CFFBAE74046D4
S3150800AEB04BF0B0FC002804DA21462846FFF728FFA5
S3150800AEC0B0E71E4813F04AFF00212046FFF70AFDA7
S3150800AED0039B4A46CDE900B34146002338461FF096
S3150800AEE0FDFA01309ED121462846FFF717FF99E75C
S3150800AEF001307FF45DAF4AF0C7FF00287FF458AFF2
S3150800AF00384655F0FCFA4FF47A704CF0A4F9284606
S3150800AF10FFF77CFD2046FFF779FD30464BF06DFCC8
S3150800AF200FE700BF852D0708862E0708C42B0708DC
S3150800AF30D0DD0808BA2D0708A12D0708E02D070857
S3150800AF40D0320020B0320020DC320020BB8800203E
S3150800AF5037B56C4620460AF097FC94E80300024D84
S3150800AF6085E8030003B030BDAC38002048B1054978
S3150800AF700A68904205D349680A44904201D24EF0C5
S3150800AF805CBD7047AC380020012808D0022814BFE1
S3150800AF90022301232820034A00FB032070470023CD
S3150800AFA0F8E700BF4C2F070838B50D4609682C236B
S3150800AFB0074A0131044613F0F9FE031E06DB2A6828
S3150800AFC09A4203D3D21AE0182A6038BD0020FCE75B
S3150800AFD0EA9509082DE9F04F91B007460C46059207
S3150800AFE0002118220AA864F02CFB27B9002630464F
S3150800AFF011B0BDE8F08F002CF8D06389013B9BB2F5
S3150800B0007F2BF3D8A378012BF0D120464BF004FC14
S3150800B01002900028EAD08022AE4964F077FAE36904
S3150800B0208146002B00F095805D6C1DB19D89003D21
S3150800B03018BF01253E46D6F8008040464BF02AFC4C
S3150800B040834670B1DDF83CA0BAF1000F40F0848069
S3150800B0500C204BF0C6FB20B1C0E9008B0F90C0F85E
S3150800B06008A07669002EE6D1B9F1000F40F0DF801E
S3150800B070002D00F0D380E3699889013080B24BF047
S3150800B080B0FB05460028B1D0E369B1469A89596CE8
S3150800B09064F0E2FAE36980219B892846EE544BF076
S3150800B0A0B9FF8D4C8046A346E169002975D028462C
S3150800B0B064F085FA0A9000286FD0282303FB09B3A9
S3150800B0C01C6A0D930444A54265D8A844444528BF84
S3150800B0D00024802120460A944BF09CFF0B90002800
S3150800B0E064D101244FF000080220FFF74DFF0390BA
S3150800B0F00320FFF749FFDDF83CA08146002840F011
S3150800B100D1800027059BB8B218809CB90746013044
S3150800B11080B24BF066FB0997064658B1B8F1000FA6
S3150800B12040F0418180460E9CDFF8B0B1002C40F01B
S3150800B1303E81F455BAF1000F40F05A810E98002866
S3150800B14040F05D8128464BF058FB02984BF055FBC2
S3150800B1504DE71D466EE79A46DAF804309B4511D04E
S3150800B160DAF80830002BF6D10C2003934BF039FBA4
S3150800B17000283FF476AF039BC0E9008B8360CAF8CA
S3150800B18008006EE75A464146DAF8000064F02FFADE
S3150800B1900028E5D165E700249BE709F10109B9F123
S3150800B1A0030F04F128047FF47FAF9AE7002C98D0A8
S3150800B1B0B94699F80C302BB10D9B1B78022B09D098
S3150800B1C0032B28D0D9F81490B9F1000FF1D14C46C9
S3150800B1D0C84611E0D9F804000028F3D080220A995D
S3150800B1E064F094F980460028ECD148460AA94BF049
S3150800B1F069FB01280446E5D10E9B002B7FF474AF4A
S3150800B200012C3FF471AF38460AA94BF080FB4FF08A
S3150800B2100108044668E7D9F80800DDE738460AA9B0
S3150800B2204BF075FB354604464FF00108E4E78021EC
S3150800B23002984BF0EFFE04460F9DB5B1D5F8049081
S3150800B2404C452DD14A462968029864F0D0F938BB96
S3150800B250B846D8F800004BF01DFB98F80C3053B9E7
S3150800B260D8F81480B8F1000FF3D10E9C0025B4FA73
S3150800B27084F4640936E78145F2D16A68D8F8001083
S3150800B280286864F0B4F982460028E9D140460AA93C
S3150800B2904BF018FB01280446E2D15546D046ABE7E9
S3150800B2A0AD68CAE7039B002B3FF42BAF0120FFF7DD
S3150800B2B06BFE00283FF425AFB8F1000F1BD14746B7
S3150800B2C0DDF838B0BBF1000F18D1002F3FF419AFE5
S3150800B2D0013F17E70C2F07084C2F0708292F0708E7
S3150800B2E0036A4269134404333B444F6889681F4420
S3150800B2F00029F5D1E4E751460027F9E78021DBF874
S3150800B30000004BF087FE039B80211A6A0490DBF845
S3150800B310040007924BF07EFED9F82010079A049B8A
S3150800B3200A44093206901744DBF8080080211F44B6
S3150800B3304BF070FE069BDBF814B03B441F18C1E7C0
S3150800B340D9F80400013080B24BF04BFA044650B9E4
S3150800B350002009A9FFF728FE8046D9F80890B9F118
S3150800B360000FEDD1DFE6D9E9001264F075F9D9F8D6
S3150800B3700420039BDDF824B0A3540BF10101224AF3
S3150800B3802346404613F012FD049020464BF035FA4A
S3150800B390049A002ADCDB9345DAD308EB0200ABEB10
S3150800B3A002020992D5E7D14680460394D7E7A368F7
S3150800B3B0DDF82490019363685A4600934046236853
S3150800B3C009F1010113F0F2FC00280EDB81450CD3CC
S3150800B3D08044A9EB00000990636923B1404609A996
S3150800B3E0FFF7E2FD80466469A0E64FF00008F3E740
S3150800B3F0DAF8084050464BF000FAA2469AE6446945
S3150800B4004BF0FBF920469AE61E2F070808B5074BAE
S3150800B4104FF0FF3118684BF0EAFF30B140F27B116C
S3150800B420034B044A044849F043FA08BDB4380020DF
S3150800B4302F30070809310708C42F070808B5064B37
S3150800B44018684CF008F830B140F28111034B044AF1
S3150800B450044849F02DFA08BDB43800206F300708B3
S3150800B460E8300708C42F070838B50B4803F0FAFE7A
S3150800B4700A4B186028B9DA21094B0A4A0A4849F0E2
S3150800B48017FA0024094D28190121183401F0A4F9E6
S3150800B490B4F5B47FF7D138BD58310708B438002061
S3150800B4A0A030070828310708C42F07084CBE00201B
S3150800B4B0F8B506460D46D9B103F052FE02280446F1
S3150800B4C001D1FFF7A3FF002318200A4A00FB03F166
S3150800B4D08F18515CB14204D1BD60022C05D0002002
S3150800B4E0F8BD01330F2BF1D1F7E7FFF7A7FFF6E712
S3150800B4F00120F5E740BE00202DE9F0418378054696
S3150800B5007F33DBB2102B09D9FFF780FFA9781248E1
S3150800B51013F024FCBDE8F041FFF790BF0F4AD4565C
S3150800B520FFF774FF631CF1D018270D4E284607FB5A
S3150800B5300468D8F804309847D8F808300BB128467C
S3150800B54098477C4333191B69002BE3D00C34301918
S3150800B5504BF0DBFBDEE700BFC1300708D730070832
S3150800B56040BE00202DE9F047002407460E46254632
S3150800B570DFF84480DFF84490DFF844A0A64204D8F8
S3150800B580BDE8F0470B4813F0E9BB731EA342395DCB
S3150800B59006D1504613F0E2FB132D06D1002505E02F
